:020000040800F2
:1000000000000320013A0008D5250008E325000878
:10001000E9250008EF250008F5250008000000008C
:10002000000000000000000000000000FB250008A8
:1000300009260008000000001726000825260008F1
:10004000553A0008553A0008553A0008312600088C
:10005000553A0008553A0008BF260008CD2600088A
:10006000553A0008553A0008B1260008553A0008EC
:10007000553A0008553A00083D260008553A000850
:10008000553A0008553A0008553A0008553A000814
:10009000553A0008553A0008553A0008553A000804
:1000A000553A0008553A0008553A0008553A0008F4
:1000B000553A0008553A0008553A0008553A0008E4
:1000C000553A0008553A0008553A0008553A0008D4
:1000D0005126000865260008553A0008553A0008E0
:1000E000553A0008553A0008553A0008553A0008B4
:1000F000792600088526000891260008553A000850
:10010000553A0008553A0008553A0008553A000893
:10011000553A0008553A0008553A0008553A000883
:10012000553A0008553A00089D260008553A00083F
:0C013000553A0008553A0008553A0008FE
:1001400010B5054C237833B9044B13B10448AFF311
:1001500000800123237010BD200200200000000059
:1001600044C9000808B5034B1BB103490348AFF36A
:10017000008008BD000000002402002044C90008DF
:10018000034613F8012B002AFBD1181A01387047D7
:1001900001F0FF01102A2BDB10F0070F08D010F838
:1001A000013B013A8B422DD010F0070F42B3F6D13C
:1001B000F0B441EA012141EA014122F007047FF055
:1001C00000070023F0E80256083C85EA010586EAAC
:1001D000010685FA47F5A3FA87F586FA47F6A5FAE8
:1001E00087F68EB9EED1F0BC01F0FF0102F00702F4
:1001F00032B110F8013B013A83EA010313B1F8D19F
:100200000020704701387047002D06BF354603387F
:10021000073815F0010F07D1013015F4807F02BFB8
:10022000013015F4C03F0130F0BC0138704700BF09
:1002300053B94AB9002908BF00281CBF4FF0FF314D
:100240004FF0FF3000F074B9ADF1080C6DE904CE49
:1002500000F006F8DDF804E0DDE9022304B07047A1
:100260002DE9F047089D04468E46002B4DD18A4269
:10027000944669D9B2FA82F252B101FA02F3C2F19C
:10028000200120FA01F10CFA02FC41EA030E94402D
:100290004FEA1C48210CBEFBF8F61FFA8CF708FB4E
:1002A00016E341EA034306FB07F199420AD91CEB26
:1002B000030306F1FF3080F01F81994240F21C8158
:1002C000023E63445B1AA4B2B3FBF8F008FB1033A0
:1002D00044EA034400FB07F7A7420AD91CEB0404D5
:1002E00000F1FF3380F00A81A74240F207816444A5
:1002F000023840EA0640E41B00261DB1D44000232A
:10030000C5E900433146BDE8F0878B4209D9002D8D
:1003100000F0EF800026C5E9000130463146BDE817
:10032000F087B3FA83F6002E4AD18B4202D3824281
:1003300000F2F980841A61EB030301209E46002D30
:10034000E0D0C5E9004EDDE702B9FFDEB2FA82F285
:10035000002A40F09280A1EB0C014FEA1C471FFAE3
:100360008CFE0126200CB1FBF7F307FB131140EACA
:1003700001410EFB03F0884208D91CEB010103F197
:10038000FF3802D2884200F2CB804346091AA4B259
:10039000B1FBF7F007FB101144EA01440EFB00FE2D
:1003A000A64508D91CEB040400F1FF3102D2A64592
:1003B00000F2BB800846A4EB0E0440EA03409CE731
:1003C000C6F12007B34022FA07FC4CEA030C20FADE
:1003D00007F401FA06F31C43F9404FEA1C4900FAFE
:1003E00006F3B1FBF9F8200C1FFA8CFE09FB18117B
:1003F00040EA014108FB0EF0884202FA06F20BD9EE
:100400001CEB010108F1FF3A80F08880884240F23D
:100410008580A8F102086144091AA4B2B1FBF9F081
:1004200009FB101144EA014100FB0EFE8E4508D97C
:100430001CEB010100F1FF346CD28E456AD9023801
:10044000614440EA0840A0FB0294A1EB0E01A142E6
:10045000C846A64656D353D05DB1B3EB080261EB54
:100460000E0101FA07F722FA06F3F1401F43C5E92E
:10047000007100263146BDE8F087C2F12003D84064
:100480000CFA02FC21FA03F3914001434FEA1C47A6
:100490001FFA8CFEB3FBF7F007FB10360B0C43EA98
:1004A000064300FB0EF69E4204FA02F408D91CEB48
:1004B000030300F1FF382FD29E422DD90238634446
:1004C0009B1B89B2B3FBF7F607FB163341EA0341E6
:1004D00006FB0EF38B4208D91CEB010106F1FF3835
:1004E00016D28B4214D9023E6144C91A46EA00462C
:1004F00038E72E46284605E70646E3E61846F8E6BE
:100500004B45A9D2B9EB020864EB0C0E0138A3E706
:100510004646EAE7204694E74046D1E7D0467BE7E7
:10052000023B614432E7304609E76444023842E75F
:10053000704700BF80B483B000AF7860064BD3F83B
:10054000902005497B681343C1F8903000BF0C37F9
:10055000BD465DF8047B70470008005880B485B044
:1005600000AF78604FF0B043DA6C4FF0B0417B6879
:100570001343CB644FF0B043DA6C7B681340FB60ED
:10058000FB6800BF1437BD465DF8047B704780B43C
:1005900085B000AF78604FF0B043D3F84C214FF0F6
:1005A000B0417B681343C1F84C314FF0B043D3F8EE
:1005B0004C217B681340FB60FB6800BF1437BD46CD
:1005C0005DF8047B704780B500AF03F043FC03F097
:1005D00047FC4FF48030FFF7ADFF09F06BF800F0F7
:1005E00021F800F0C3F800BF80BD0000B0B588B0AE
:1005F00000AF0B4B3C1D1D460FCD0FC495E8070007
:1006000003C422800234130C23700AF099FD3B1DB1
:10061000184609F0EEFB00BF2037BD46B0BD00BF55
:100620005CC9000880B588B000AF3B1D00221A608D
:100630005A609A60DA601A610023BB8300237B83CF
:1006400000233B830023FB7738E0FB7F444ADB0039
:1006500013449B79002B2BD0FB7F414A52F8333057
:10066000404A93421BD03F4A934223D8B3F1904F64
:1006700003D03D4A934209D01CE0FB7F384ADB009F
:1006800013449A88BB8B1343BB8314E0FB7F344A2B
:10069000DB0013449A887B8B13437B830BE0FB7F47
:1006A0002F4ADB0013449A883B8B13433B8302E0C1
:1006B00000BF00E000BFFB7F0133FB77FB7F252BF2
:1006C000C3D90023FB600123BB6003233B61BB8BC9
:1006D000002B14D0BB8B7B600120FFF73FFF012074
:1006E000FFF755FF3B1D19464FF0904004F0CAF844
:1006F000BB8B002219464FF0904004F033FA7B8BFD
:10070000002B12D07B8B7B600220FFF727FF02209B
:10071000FFF73DFF3B1D1946134804F0B3F87B8BF0
:1007200000221946104804F01DFA3B8B002B13D011
:100730003B8B7B600420FFF711FF0420FFF727FFAE
:100740003B1D1946074804F09DF83B8B00221946D3
:10075000044804F007FA00BF00BF2037BD4680BD43
:10076000E0D30008000800480004004880B400AF4F
:1007700000BFBD465DF8047B704780B500AF01F057
:100780003FFC00BF80BD80B584B000AFF8600B4671
:100790007A607B817A897B68F968002001F0AEFA83
:1007A00000BF1037BD4680BD80B483B000AF786015
:1007B000074BD3F8803023F0070205497B681343C9
:1007C000C1F8803000BF0C37BD465DF8047B704730
:1007D0000004005880B483B000AF7860064BD3F8B3
:1007E000902005497B681343C1F8903000BF0C3757
:1007F000BD465DF8047B70470008005880B483B0A4
:1008000000AF78604FF0B0430A4AC3F89C204FF025
:10081000B043D3F89C3023F47C527B681B024FF02A
:10082000B0411343C1F89C3000BF0C37BD465DF8A2
:10083000047B7047FECAFECA80B483B000AF786004
:100840004FF0B0439B6823F400424FF0B0417B6807
:1008500013438B6000BF0C37BD465DF8047B7047C7
:1008600080B400AF4FF0B043D3F890304FF0B042B7
:1008700043F48033C2F8903000BFBD465DF8047B7E
:10088000704780B400AF4FF0B043D3F890304FF0D2
:10089000B04223F48033C2F8903000BFBD465DF80B
:1008A000047B704780B400AF4FF0B043D3F894306E
:1008B00003F08063B3F1806F01D1012300E00023D6
:1008C0001846BD465DF8047B704780B400AF4FF01A
:1008D000B043D3F8943003F08053B3F1805F01D17B
:1008E000012300E000231846BD465DF8047B7047F5
:1008F00080B485B000AF78604FF0B0431A6D4FF010
:10090000B0417B6813430B654FF0B0431A6D7B68B1
:100910001340FB60FB6800BF1437BD465DF8047BE5
:100920007047000080B400AF044B1B681B0C9BB2E7
:100930001846BD465DF8047B704700BF002004E008
:1009400080B483B000AF786039607B685A683B68D8
:100950001B041A437B685A6000BF0C37BD465DF824
:10096000047B704780B483B000AF786039607B68E7
:100970005A683B681A437B685A6000BF0C37BD4613
:100980005DF8047B704780B483B000AF7860396055
:100990007B685A693B681B041A437B685A6100BF35
:1009A0000C37BD465DF8047B704780B483B000AF60
:1009B000786039607B685A693B681A437B685A6182
:1009C00000BF0C37BD465DF8047B704780B483B030
:1009D00000AF786039607B683A689A6000BF0C3776
:1009E000BD465DF8047B704780B483B000AF78608B
:1009F00039607B683A689A6100BF0C37BD465DF884
:100A0000047B704780B400AF054B1B69044A23F098
:100A10000403136100BFBD465DF8047B704700BF4F
:100A200000ED00E080B483B000AF78607B68FF2207
:100A30005A6200BF0C37BD465DF8047B704780B436
:100A400083B000AF78607B68CA225A627B68532209
:100A50005A6200BF0C37BD465DF8047B704780B416
:100A600083B000AF786039607B689B6823F0070231
:100A70003B681A437B689A6000BF0C37BD465DF83F
:100A8000047B704780B500AF044B4FF400421A61FD
:100A900000F02EF800F06EF800BF80BD0040005856
:100AA00080B500AF00F07AF800F092F80849002015
:100AB00000F0A2FEFFF787FD012101200AF0DEFB16
:100AC00000F0D0F900F0DEF900F090F800BF80BD32
:100AD0008004002080B400AF00BFBD465DF8047BF9
:100AE000704780B500AF0020FFF774FE00BF80BDE7
:100AF00080B500AF00F004F800F01AF800BF80BD28
:100B000080B500AFFFF7CEFE0346002B0DD0FFF7F8
:100B1000DCFE0346002B08D104F0FEF804F0FCF8DC
:100B2000FFF79EFEFFF7ADFE00BF00BF80BD0000D7
:100B300080B500AF4FF48010FFF7DAFE3F210C487C
:100B4000FFF744FF3F210A48FFF74EFF3F210848C7
:100B5000FFF7F6FE3F210648FFF715FF3F21044847
:100B6000FFF700FF3F210248FFF71FFF00BF80BDD6
:100B7000000C005880B582B000AF002008F0CEFF16
:100B800078607B68002B05D07B689B791846FFF75F
:100B900035FE00BF00BF0837BD4680BD80B500AF41
:100BA000FFF798FFFFF79DFF00F002F800BF80BD40
:100BB00080B500AF0548FFF742FF00210348FFF76B
:100BC0004EFF0248FFF72EFF00BF80BD0028004007
:100BD00080B500AF4FF40040FFF72EFE0AF03CFB5B
:100BE0000420FFF7E1FD00BF80BD000080B588B0A4
:100BF00000AF0AF0EFF8114A002140200AF058FC3B
:100C00000F4B3B600F4B7B603B4619460E4809F08B
:100C1000CBF90E4BBB600E4BFB600E4B3B6140F2C1
:100C20003C537B6107F1080318460AF015FA0AF0F5
:100C3000CBF800BF2037BD4680BD00BFE19F000854
:100C400024070320590C0008710C00083C090320FC
:100C500030080320E801032080B483B000AF0346CE
:100C6000FB7100BF0C37BD465DF8047B7047000088
:100C700080B588B000AF78607B685B680B33FB6140
:100C800007F10C03184609F0E1F83B7B19467B7B22
:100C90001A46BB7B2E480AF08FFD3B7C19462D4837
:100CA0000AF08AFDBB7D1946FB7D1A463B7E2A4829
:100CB0000AF082FDFB691B889BB2A3F51243072B48
:100CC00040D801A252F823F0E90C0008F10C00080A
:100CD000F90C0008450D0008150D0008250D000849
:100CE0002D0D00083D0D0008786800F069F82AE035
:100CF000786800F03FF826E018480AF0E3FDFB6949
:100D000002331968FB6902335B681A4614480AF01B
:100D100053FD18E0FB6902331B68194611480AF0BD
:100D20004BFD10E010480AF0CDFD0CE0FB690233EA
:100D30001B6819460D480AF03FFD04E00C480AF014
:100D4000C1FD00E000BF00BF2037BD4680BD00BF31
:100D500078C900089CC90008B8C90008D0C90008B3
:100D6000FCC9000840CA000874CA000890CA0008FC
:100D7000C8CA000880B584B000AF78607B685B6843
:100D80000B33FB60FB680233BB60BB681B78194602
:100D900008480AF011FDBB681B78002B03D10648F8
:100DA0000AF090FD03E005480AF08CFD00BF103703
:100DB000BD4680BDE4CA000810CB000848CB00083F
:100DC00080B58AB000AF786007F10C0300221A608A
:100DD0005A609A609A8100237B627B685B680B3360
:100DE0003B623B6A0233FB61FB691B78002B1ED11F
:100DF00018480AF067FDFFF7F9FB0D233B737F23CB
:100E0000BB73FFF78FFD7862796A13480AF0D4FC50
:100E10007B6A9BB23B8307F10C03184609F000F88C
:100E200001F028FD002101200AF028FA0EE0FB69FC
:100E30001B78012B06D109480AF044FD7B6800228B
:100E40001A7003E006480AF03DFD00BF2837BD4692
:100E500080BD00BF7CCB0008ACCB0008CCCB000829
:100E6000F8CB000880B500AF002002F00DFE012095
:100E700002F00AFE022002F007FE012002F03EFE10
:100E800000BF80BD80B500AF0121002002F06AFEE6
:100E90000121012002F066FE0121022002F062FE23
:100EA00000BF80BD80B584B000AF786002F0AEFFB7
:100EB000B8607B68FB60FB68B3F1FF3F0AD002F0CB
:100EC000BDFF03461A46FB681344FB6002E0FFF7D0
:100ED00099FD30BF02F09AFF0246BB68D31AFA6848
:100EE0009A42F4D800BF00BF1037BD4680BD80B520
:100EF00000AF4FF0FF300AF0F1F900BF80BD80B4C1
:100F000000AF00BFBD465DF8047B704780B582B07E
:100F100000AF786039604FF0FF300AF0DFF900BFB2
:100F20000837BD4680BD80B582B000AF7860002133
:100F300040200AF0DFFA00BF0837BD4680BD80B50B
:100F400082B000AF786002200AF040FB00BF083793
:100F5000BD4680BD80B582B000AF786002200AF047
:100F600055FB00BF0837BD4680BD80B582B000AFDD
:100F70000346FB80FB88102B06D0102B0DDC012BC9
:100F800005D0022B06D008E001F090FE06E001F04B
:100F900093FE03E001F098FE00E000BF00BF0837B9
:100FA000BD4680BD80B483B000AF7860064BD3F8F7
:100FB000802005497B681343C1F8803000BF0C379F
:100FC000BD465DF8047B70470008005880B483B0CC
:100FD00000AF7860054B1A6804497B6813430B60C7
:100FE00000BF0C37BD465DF8047B70470008005811
:100FF00080B483B000AF0D4B9B6A9BB27B600B4B00
:101000009B6A9BB23B6005E03B687B60074B9B6A39
:101010009BB23B607A683B689A42F5D13B681846C0
:101020000C37BD465DF8047B704700BF00280040C8
:1010300080B485B000AF03460A46FB711346BB710E
:10104000BA791D4913465B001344DB000B4415338A
:101050001B78FB73FB7B062B09D0FA7B16491346E2
:101060005B001344DB000B441433FA791A70FA79ED
:10107000114913465B001344DB000B441533FA7B24
:101080001A70FA790C4913465B001344DB000B44D9
:101090001433BA791A70BA79074913465B001344BE
:1010A000DB000B441533FA791A7000BF1437BD46C4
:1010B0005DF8047B704700BFB800002080B485B0A5
:1010C00000AF03460A46FB711346BB71294B1B78E0
:1010D000DBB2BA799A4232D0BA79274913465B001B
:1010E0001344DB000B4414331B78FB73FA7B224957
:1010F00013465B001344DB000B441533FA791A7076
:10110000FA791D4913465B001344DB000B44153389
:10111000BA791A70FA79184913465B001344DB0058
:101120000B441433FA7B1A70BA79134913465B00E7
:101130001344DB000B441433FA791A7014E0FA7983
:101140000D4913465B001344DB000B441533BA7999
:101150001A70BA79084913465B001344DB000B444C
:101160001433FA791A7000BF1437BD465DF8047B5A
:10117000704700BF48010020B800002080B584B04F
:1011800000AF0346FB714E4B1B78DBB2062B18D128
:101190004B4B1B78DAB24B4B1A70494AFB791370F0
:1011A000FA79494913465B001344DB000B441533BD
:1011B00006221A70454B4FF0FF321A600023FB8164
:1011C00078E000F009F90346FB81FA793E491346BD
:1011D0005B001344DB000B4408331968FB89FA7980
:1011E0001944394813465B001344DB0003440833B9
:1011F0001960FA79344913465B001344DB000B4451
:1012000008331B68BB602E4B1B78DBB219462E4A95
:101210000B465B000B44DB00134408331B68BA68C1
:101220009A4237D3264B1B787B737A7B2649134629
:101230005B001344DB000B4415331B783B7313E056
:101240007A7B214913465B001344DB000B441533C2
:101250001B787B737A7B1C4913465B001344DB00CD
:101260000B4415331B783B733B7B062B0BD03A7B2F
:10127000154913465B001344DB000B4408331B681D
:10128000BA689A42DCD27A7BFB7911461846FFF79E
:10129000CFFE0FE00A4B1B78DAB2FB7911461846F5
:1012A000FFF70CFF064B1B78DAB2064B1A70044AA4
:1012B000FB791370FB8918461037BD4680BD00BF0F
:1012C0004801002049010020B80000204C01002006
:1012D00080B485B000AF03460A46FB711346BB716C
:1012E000394B1B78DBB2FA799A4211D1364B1B7815
:1012F000DAB2364B1A70FA79354913465B0013445B
:10130000DB000B4415331B78DAB22F4B1A703EE02A
:10131000FA792F4913465B001344DB000B44143366
:101320001B78FB73FA792A4913465B001344DB00F0
:101330000B4415331B78BB73F979FA7B24480B46B1
:101340005B000B44DB00034415331B78D8B2204903
:1013500013465B001344DB000B44153302461A703E
:10136000BB7B062B13D0F979BA7B19480B465B007F
:101370000B44DB00034414331B78D8B214491346E2
:101380005B001344DB000B44143302461A70FA79F5
:101390000F4913465B001344DB000B440C3301225E
:1013A0001A70094B1B78DBB2062B07D1BB79002BD7
:1013B00004D1084B4FF0FF321A6000BF00BF143752
:1013C000BD465DF8047B70474801002049010020BC
:1013D000B80000204C01002080B582B000AF1A4B4D
:1013E0001B68B3F1FF3F26D0FFF702FE7860164B73
:1013F0001B687A689A4205D8134B1A687B68D31A1F
:101400007B600AE0114B1B881A467B68D31A3B604D
:101410000D4B1B683A6813447B600D4B1B781A46D2
:101420007B6802FB03F37B600A4B1B781A467B68E0
:10143000D3407B6001E000237B607B689BB2184651
:101440000837BD4680BD00BF4C010020420200208D
:10145000410200204002002080B582B000AF034668
:10146000FB80FB88002B08D1FFF7C2FD0346244A0E
:101470001360032002F077FE3EE0FB88012B03D8C7
:10148000204B1B78012B02D0FB88013BFB8000BF67
:101490001D4B1B681B68DB6803F00403002BF7D0AF
:1014A000194B1B681B68DB68DAB2174B1B681B689B
:1014B00062F49062DA60154B4FF40022DA60032088
:1014C00002F05FFE124B5B691B0C1B04FA8810498B
:1014D00013434B61FFF78CFD0346094A13600A4B27
:1014E0001B681B689A68084B1B681B6842F4806283
:1014F0009A60AFF3008000BF0837BD4680BD00BFD3
:101500004C010020400200203C020020000800584E
:101510000028004080B584B000AF474B9B6803F4BF
:101520008063B3F5806F08D100BF444B1B681B6814
:10153000DB6803F00403002BF7D1404B1B681B68EA
:101540009A683E4B1B681B6822F480629A603C4B91
:101550001B78FB73FA7B3B4913465B001344DB00AB
:101560000B4408331B68BB60FFF736FF0346FB8064
:10157000FB88BA689A4205D20023BB81324B012214
:101580001A704DE0FB88314A128892B213441A4611
:10159000BB68934206D92D4B1B88BB812A4B002286
:1015A0001A703DE0BB689AB2FB88D31ABB81264B08
:1015B00001221A7034E0FA7B224913465B0013447F
:1015C000DB000B4408331A68FB889A420AD2FA7B84
:1015D0001C4913465B001344DB000B440833002214
:1015E0001A6013E0FA7B174913465B001344DB00D3
:1015F0000B4408331968FB88FA7BC91A1148134653
:101600005B001344DB00034408331960FA7B0D4987
:1016100013465B001344DB000B4415331B78FB734C
:10162000FB7B062BC7D1BB891846FFF715FF00BF10
:101630001037BD4680BD00BF002800403C0200209E
:1016400048010020B8000020500100204402002082
:1016500080B58AB000AFEFF310837B617B697B625A
:1016600072B600BF5F4B1B681B68CA225A625D4B93
:101670001B681B6853225A625A4B1B681B689A6886
:10168000584B1B681B6822F480629A60564B1B788B
:1016900087F8233097F82320544913465B001344FE
:1016A000DB000B440C331B78DBB2022B72D197F8B2
:1016B00023204E4913465B001344DB000B441B6898
:1016C000FB6197F82320494913465B001344DB0074
:1016D0000B4410331B68BB61454B1B78DBB2002BFE
:1016E00050D097F82320414913465B001344DB0098
:1016F0000B440D331B78DBB2012B26D197F8233036
:1017000001211846FFF7E4FD7B6A3B613B6983F3E7
:10171000108800BF97F82320344913465B00134418
:10172000DB000B4404331A6897F82330114618463F
:1017300000F04EFA2B4B1B681B68CA225A62294BD9
:101740001B681B6853225A6214E07B6AFB60FB68CB
:1017500083F3108800BF97F82330184600F0ACF9E7
:10176000204B1B681B68CA225A621E4B1B681B68F1
:1017700053225A6297F82330FA691946B86900F083
:10178000AFFA25E0FFF7C6FE7B6ABB60BB6883F358
:1017900010881DE000BF134B1B681B68DB6803F05B
:1017A0000403002BF7D00F4B1B681B68DB68DAB211
:1017B0000C4B1B681B6862F49062DA600D4B4FF4AF
:1017C0000022DA607B6A7B607B6883F3108800BF4D
:1017D000044B1B681B68FF225A6200BF2837BD46B6
:1017E00080BD00BF3C02002048010020B80000205E
:1017F000500100200008005880B588B000AF0346B3
:101800003960FB71644A3B681360634B1B681B685B
:10181000CA225A62604B1B681B6853225A625F4B94
:101820009B685E4A43F0200393605C4B9B68DBB28D
:1018300003F00703DBB2C3F10403DAB2584B1A70AA
:10184000564B1B6903F4FE034FF4FE023A613A69FA
:1018500092FAA2F2FA60FA687A617A69002A01D1F2
:10186000202203E07A69B2FA82F2D2B2D340DBB22C
:101870000133DAB24B4B1A70484B1B699BB2C3F36E
:101880000E039BB201339AB2474B1A80464B1B881A
:10189000013B444A127802FB03F3A3F5A073404ACC
:1018A0001278D340BB61BB694FF6FE72934204D9F4
:1018B0003E4B4FF6FF721A8003E0BB699AB23B4B76
:1018C0001A804FF40020FFF781FB4FF40020FFF750
:1018D00069FBFB79002B43D1354B01221A70354B44
:1018E0004FF0FF321A600023FB770CE0FA7F324999
:1018F00013465B001344DB000B440C3300221A70C8
:10190000FB7F0133FB77FB7F052BEFD92B4B0622A7
:101910001A70214B1B681B689A681F4B1B681B6859
:1019200022F480629A601C4B1B681B68DB68DAB289
:10193000194B1B681B6862F49062DA60204B4FF40D
:101940000022DA60032002F01CFC134B1B681B68AA
:101950009A68114B1B681B6842F480429A600AE047
:101960000D4B1B681B68DB6803F48063002B02D0FF
:10197000032002F0F8FB084B1B681B68FF225A6229
:1019800000220321032002F0ACFB032002F0C3FB82
:1019900000BF2037BD4680BD3C020020002800402B
:1019A00040020020410200204202002044020020A8
:1019B000500100204C010020B80000204801002008
:1019C0000008005880B48BB000AFF860B9603B608D
:1019D0001346FB71002387F82630EFF31083FB6179
:1019E000FB693B6272B600BF04E097F82630013312
:1019F00087F8263097F82630052B0CD897F8262044
:101A00002C4913465B001344DB000B440C331B785A
:101A1000DBB2002BE9D197F82630062B38D097F8A7
:101A20002620244913465B001344DB000B440C338F
:101A300001221A703B6ABB61BB6983F3108800BF47
:101A400097F826201B4913465B001344DB000B4428
:101A50001033FA681A6097F82620164913465B007F
:101A60001344DB000B440D33FA791A7097F82620E3
:101A7000104913465B001344DB000B443A681A60BC
:101A8000BB6897F826201A70002387F8273008E0F3
:101A90003B6A7B617B6983F3108800BF012387F871
:101AA000273097F8273018462C37BD465DF8047B61
:101AB000704700BFB800002080B586B000AF034675
:101AC000FB71EFF31083FB60FB687B6172B600BFB4
:101AD000032002F02EFB384B1B681B68CA225A6297
:101AE000354B1B681B6853225A62FA7933491346F7
:101AF0005B001344DB000B440C331B78DBB2022B7E
:101B000048D1FB7900211846FFF7E2FB2C4B1B78EC
:101B1000FB74FB7C062B35D12A4B9B6803F4806356
:101B2000B3F5806F08D100BF234B1B681B68DB68CF
:101B300003F00403002BF7D11F4B1B681B689A6846
:101B40001D4B1B681B6822F480629A6000BF1A4B11
:101B50001B681B68DB6803F00403002BF7D0164BEF
:101B60001B681B68DB68DAB2134B1B681B6862F4E6
:101B70009062DA60144B4FF40022DA60032002F026
:101B800000FB07E0114B1B78DBB2FA7C9A4201D0D4
:101B9000FFF7C0FC084B1B681B68FF225A6203203A
:101BA00002F0B9FA7B69BB60BB6883F3108800BFA1
:101BB00000BF1837BD4680BD3C020020B8000020A1
:101BC000480100200028004000080058490100207A
:101BD00080B586B000AF03463960FB71FA793C49A5
:101BE00013465B001344DB000B440C331B78DBB261
:101BF000022B03D1FB791846FFF75EFFEFF310834A
:101C0000FB60FB687B6172B600BF032002F091FAB3
:101C1000304B1B681B68CA225A622E4B1B681B681C
:101C200053225A62FA792A4913465B001344DB00B7
:101C30000B440C3302221A70FA79254913465B00D3
:101C40001344DB000B4408333A681A60FA792049E0
:101C500013465B001344DB000B4404333A681A60FC
:101C6000FB791846FFF78AFA03467B821A4B1B78EA
:101C70007B741A4B1B78DBB27A7C9A4202D0FFF756
:101C800049FC13E0FA79124913465B001344DB0068
:101C90000B44083319687B8AFA79C91A0C48134631
:101CA0005B001344DB00034408331960094B1B68D5
:101CB0001B68FF225A62032002F02DFA7B69BB6089
:101CC000BB6883F3108800BF00BF1837BD4680BDD6
:101CD000B80000203C0200204801002049010020FB
:101CE00080B584B000AFF8600B467A60FB727B6809
:101CF000984700BF1037BD4680BD000080B586B054
:101D000000AFB9607B600346FB731346BB810023C1
:101D1000FB750023BB75FB7B002B02D0022B0FD081
:101D20001DE01F4A7B6813601E4B1F4A1A60BB8967
:101D30001A46B9681B4805F05BF80346FB750EE0D0
:101D40001A4A7B6813601A4B1A4A1A60BB891A46F2
:101D5000B968174805F04CF80346FB7500BFFB7DDA
:101D6000032B17D801A252F823F000BF7D1D0008F5
:101D7000831D0008891D00088F1D00080023BB7506
:101D800009E00123BB7506E00223BB7503E00323D2
:101D9000BB7500E000BFBB7D18461837BD4680BD4F
:101DA000480200201C030020003801404C020020A3
:101DB0008C0200200080004080B582B000AF7860C7
:101DC0007B681B680F4A93420AD00F4A93420FD197
:101DD0000E4B1B68002B0DD00C4B1B68984709E07D
:101DE0000B4B1B68002B07D0094B1B68984703E07F
:101DF00000BF02E000BF00E000BF00BF0837BD46E3
:101E000080BD00BF00800040003801404802002033
:101E10004C02002080B483B000AF78604FF0B04334
:101E2000D3F8903023F018024FF0B0417B68134391
:101E3000C1F8903000BF0C37BD465DF8047B704799
:101E400080B485B000AF78604FF0B0439A6C4FF02B
:101E5000B0417B6813438B644FF0B0439A6C7B684E
:101E60001340FB60FB6800BF1437BD465DF8047B80
:101E7000704780B485B000AF78604FF0B043DA6C43
:101E80004FF0B0417B681343CB644FF0B043DA6C42
:101E90007B681340FB60FB6800BF1437BD465DF8EC
:101EA000047B704780B500AF01F042FFFEF7EAFD0A
:101EB00000F014F800F070F800F08EF800F05DF912
:101EC00000F03EF900F0EAF800F006F900F0EEF854
:101ED000FEF7E6FDFFF70BF8FCE7000080B59AB0CF
:101EE00000AF07F1200348220021184609F05CFCEE
:101EF0003B1D00221A605A609A60DA601A615A61CA
:101F00009A6102F009FF0020FFF784FF214B1B6854
:101F100023F4C0631F4A43F4007313601D4B1B6816
:101F200003F4C0633B603B6847233B624FF480335C
:101F30007B620123BB624FF48073FB620123BB64AD
:101F400040233B630023FB6407F12003184603F0A2
:101F500077FA0346002B01D000F01CF96F237B6059
:101F60000223BB600023FB6000233B6100237B61F5
:101F70000023BB610023FB613B1D0121184603F0D8
:101F8000EDFD0346002B01D000F004F900BF6837D7
:101F9000BD4680BD0004005880B594B000AF3B46FC
:101FA00050220021184609F0FFFB4FF440533B60DC
:101FB0004FF480437B640223BB641023FB643B46E5
:101FC000184604F008FA0346002B01D000F0E2F8AE
:101FD00000BF5037BD4680BD80B500AF064B074AF5
:101FE0001A60054802F012FE0346002B01D000F0F3
:101FF000D1F800BF80BD00BF50020020000C005887
:1020000080B500AF234B244A1A60224B4FF4E132D3
:102010005A60204B00229A601E4B0022DA601D4B52
:1020200000221A611B4B0C225A611A4B00229A6142
:10203000184B4FF40042DA61164B00221A62154B1E
:1020400000225A62134B00229A62124804F080FE6A
:102050000346002B01D000F09DF800210D4806F04A
:1020600048F80346002B01D000F094F800210948FD
:1020700006F07DF80346002B01D000F08BF80548F0
:1020800005F0FEFF0346002B01D000F083F800BFEF
:1020900080BD00BF1C0300200038014080B400AFA9
:1020A00000BFBD465DF8047B7047000080B500AFFF
:1020B000074B084A1A60064B00225A60044804F095
:1020C00011FC0346002B01D000F064F800BF80BD76
:1020D0006C0400200010005880B500AF164B174A62
:1020E0001A60154B00225A60134B0F229A60124B54
:1020F00047F6FF72DA60104B00221A610E4B002285
:102100009A610D4B0022DA610B4B00225A610A489A
:1021100004F01DFC0346002B01D000F03BF8002228
:102120000021054804F002FD0346002B01D000F019
:1021300031F800BF80BD00BF8004002000280040AF
:1021400080B500AF0420FFF77BFE0120FFF778FE8B
:102150000220FFF775FE00220F210E2001F0C1FFC3
:102160000E2001F0D8FF00220F213A2001F0B9FF24
:102170003A2001F0D0FF00BF80BD80B500AF042041
:10218000FFF777FE0120FFF774FE0220FFF771FED4
:1021900000BF80BD80B400AF00BFBD465DF8047BCA
:1021A000704780B400AF4FF0B043D3F890304FF099
:1021B000B04243F40043C2F8903000BFBD465DF822
:1021C000047B704780B485B000AF78604FF0B043B7
:1021D000DA6C4FF0B0417B681343CB644FF0B043EF
:1021E000DA6C7B681340FB60FB6800BF1437BD46A8
:1021F0005DF8047B704780B485B000AF78604FF025
:10220000B0431A6D4FF0B0417B6813430B654FF03C
:10221000B0431A6D7B681340FB60FB6800BF143746
:10222000BD465DF8047B704780B485B000AF786030
:102230004FF0B0439A6D4FF0B0417B6813438B650C
:102240004FF0B0439A6D7B681340FB60FB6800BFA2
:102250001437BD465DF8047B704780B485B000AF8D
:1022600078604FF0B043DA6D4FF0B0417B681343B4
:10227000CB654FF0B043DA6D7B681340FB60FB68C1
:1022800000BF1437BD465DF8047B704780B485B04D
:1022900000AF78604FF0B0431A6E4FF0B0417B68EA
:1022A00013430B664FF0B0431A6E7B681340FB601C
:1022B000FB6800BF1437BD465DF8047B704780B5EE
:1022C00000AF4FF40020FFF796FF002200212E20E0
:1022D00001F007FF2E2001F01EFF00BF80BD0000AF
:1022E00080B582B000AF78607B681B680D4A93426E
:1022F00013D14FF48010FFF77EFF002200212C2025
:1023000001F0EFFE2C2001F006FF002200212D201D
:1023100001F0E7FE2D2001F0FEFE00BF0837BD46AC
:1023200080BD00BF000C005880B5A0B000AF786041
:1023300007F16C0300221A605A609A60DA601A6131
:1023400007F10C0350220021184609F02DFA7B6892
:102350001B68684A93426ED10223FB600023BB6274
:1023600007F10C03184604F036F80346002B01D0A1
:10237000FFF710FF0120FFF770FF0120FFF722FF9A
:102380000C23FB6602233B6700237B670323BB67A9
:102390000823FB6707F16C0319464FF0904002F0E9
:1023A00071FA554B554A1A60534B11225A60524BE1
:1023B00010229A60504B0022DA604F4B80221A6143
:1023C0004D4B00225A614C4B00229A614A4B00222D
:1023D000DA61494B00221A62474801F0E1FE0346E8
:1023E000002B01D0FFF7D6FE4FF08853FB6500238A
:1023F0003B66002387F86430002387F865300123AB
:10240000BB6607F15C0319463B4802F0FBF9034643
:10241000002B01D0FFF7BEFE7B68374A9A67364A29
:102420007B68936200220021252001F05AFE2520BE
:1024300001F071FE5AE07B681B68314A934255D126
:102440000123FB6000237B6207F10C03184603F0B5
:10245000C2FF0346002B01D0FFF79CFE4FF48040E3
:10246000FFF714FF0220FFF7ADFEC023FB66022337
:102470003B6701237B670323BB670723FB6707F1E8
:102480006C0319461F4802F0FDF91F4B1F4A1A60E2
:102490001D4B0F225A601C4B10229A601A4B0022CF
:1024A000DA60194B80221A61174B00225A61164BD1
:1024B00000229A61144B0022DA61134B00221A6247
:1024C000114801F06DFE0346002B01D0FFF762FEBC
:1024D0007B680D4A9A670C4A7B6893620022002150
:1024E000242001F0FEFD242001F015FE00BF8037FE
:1024F000BD4680BD00800040AC0300204400024087
:1025000000380140000400480C040020440402404C
:1025100080B596B000AF786007F108035022002123
:10252000184609F041F97B681B680D4A934213D1A4
:102530004FF40073BB604FF080533B6407F1080316
:10254000184603F048FF0346002B01D0FFF722FE98
:102550004FF48020FFF74FFE00BF5837BD4680BDC7
:102560000010005880B596B000AF786007F10803FE
:1025700050220021184609F017F97B681B68144A9D
:10258000934220D14FF40063BB604FF48073BB646F
:1025900007F10803184603F01EFF0346002B01D085
:1025A000FFF7F8FDFFF7FDFD4FF48060FFF73CFEFD
:1025B00000220021032001F094FD032001F0ABFD77
:1025C000786804F06FFB00BF5837BD4680BD00BF80
:1025D0000028004080B400AF00BFBD465DF8047B1A
:1025E000704780B400AFFEE780B400AFFEE780B470
:1025F00000AFFEE780B400AFFEE780B400AF00BFDD
:10260000BD465DF8047B704780B400AF00BFBD4697
:102610005DF8047B704780B400AF00BFBD465DF835
:10262000047B704780B500AF01F0DCFB00BF80BDCC
:1026300080B500AFFFF70CF800BF80BD80B500AFDC
:10264000024801F08EFF00BF80BD00BFAC03002038
:1026500080B500AF024804F05DFC00BF80BD00BF44
:102660001C03002080B500AF024804F053FC00BFFB
:1026700080BD00BF8C02002080B500AF01F070F873
:1026800000BF80BD80B500AF01F0A2F800BF80BDE3
:1026900080B500AF02F096FA00BF80BD80B500AFF4
:1026A000024801F05EFF00BF80BD00BF0C040020A7
:1026B00080B500AF102002F06DFA00BF80BD80B57C
:1026C00000AF012002F066FA00BF80BD80B500AF08
:1026D000022002F05FFA00BF80BD80B400AF01238A
:1026E0001846BD465DF8047B704780B582B000AFE8
:1026F0007860396009F020F8034616221A604FF01E
:10270000FF3318460837BD4680BD80B582B000AFA4
:1027100078604FF0FF317868FFF7E7FFFEE780B59C
:1027200086B000AFF860B9607A6000237B610AE090
:10273000AFF300800146BB685A1CBA60CAB21A7077
:102740007B6901337B617A697B689A42F0DB7B6845
:1027500018461837BD4680BD80B483B000AF78609E
:102760004FF0FF3318460C37BD465DF8047B7047C9
:1027700080B483B000AF786039603B684FF400529A
:102780005A60002318460C37BD465DF8047B70473D
:1027900080B483B000AF7860012318460C37BD4683
:1027A0005DF8047B704780B485B000AFF860B96015
:1027B0007A60002318461437BD465DF8047B7047E5
:1027C00080B586B000AF7860144A154BD31A7B6190
:1027D0007B693B61134B1B68002B02D1114B124AE2
:1027E0001A60104B1A687B6813443A699A4207D200
:1027F00008F0A2FF03460C221A604FF0FF3309E0F5
:10280000084B1B68FB60074B1A687B681344054A3A
:102810001360FB6818461837BD4680BD00000320D2
:1028200000100000A40400200816002080B400AFAF
:10283000034B1B681846BD465DF8047B704700BF1C
:102840008075FF1F80B400AF034B1B68DBB21846D6
:10285000BD465DF8047B70478475FF1F80B400AFF0
:10286000034B1B681B0A1846BD465DF8047B704786
:102870008475FF1FB0B58EB000AF2F4B3C1D1D46B9
:102880000FCD0FC40FCD0FC40FCD0FC42B68237015
:1028900000F022FA0121022008F0F0FC274A002172
:1028A000042008F005FE3B1D184607F08BFA03468E
:1028B000002B01D0FFF76EFC00F024FA08F0DEF9DF
:1028C0001F4B002283F880201D4B4FF6FF72DA82E7
:1028D0001C4A0021012008F0EBFD1B4A00210220C8
:1028E00008F0E6FD062006F09BFC184B00221A704B
:1028F000174B01221A7000F059FD164B00221649A1
:102900000020FFF75FF8154B002215490020FFF764
:1029100059F80B4B00225A76094B00221A76114BBC
:1029200080221A80104BA0221A80012000F09EFA0B
:1029300000BF3837BD46B0BD24CC0008E997000879
:10294000540100204130000889310008B4040020FF
:10295000B5040020A1300008D5010020B1300008E6
:10296000D6010020D8010020DA01002080B58CB00B
:1029700000AF7860922387F82F307B680133BB6209
:10298000BB6A1B78FF2B00F0AC80FF2B00F34E815D
:10299000052B02D03E2B23D048E1BB6A02333B61BA
:1029A0003B69B3F801309AB2A44BDB8A9A4209D151
:1029B000A24B0022DA82A14B002283F88020A0489B
:1029C00008F080FF012000F051FA9E4B01221A709E
:1029D0009A4BDA8A9B4B5A809A4800F0D3FC28E144
:1029E000BB6A0233FB61FB691B780C2B09D00C2BF3
:1029F00075DC012B43D0032B71D1934808F062FFA3
:102A00006EE0924808F05EFFFB690133BB61BB6971
:102A10001B78002B03D18E4808F054FF02E08D484C
:102A200008F050FF854BDB8A07F10E0207F10F011A
:102A3000184606F06DFC034687F82F3097F82F30C4
:102A4000002B18D1844808F03DFFFB7B022B0AD1F4
:102A5000BB7B022B07D1FB7B1946BB7B1A467F4809
:102A600008F0AAFE3CE0FB7B1946BB7B1A467B487C
:102A700008F0A2FE34E07A4808F024FF30E0FB6959
:102A800001337B616D4B93F881301846FFF714F8E2
:102A90007B69B3F801309BB21946724808F08CFE8E
:102AA000664B93F88030042B04D1644B062283F8E4
:102AB000802003E0614B052283F880207B69B3F816
:102AC00001309AB25D4BDA825E4B00221A705B4B8A
:102AD000DA8A5C4B5A805B4800F054FC00E000BF8F
:102AE000A7E0BB6A02337B627B6A1B889BB2B3F5AB
:102AF000006F00F08780B3F5006F00F39980042B1E
:102B000000F08880042BC0F2938040F20A42934286
:102B100000F38E80B3F5806FC0F28A80A3F58063E6
:102B20000A2B00F2858001A252F823F0592B0008ED
:102B3000DB2B0008612B00086F2B0008772B0008A7
:102B40007F2B0008312C00080D2C0008972B000863
:102B5000A72B00089F2B0008434808F0B3FE64E051
:102B6000424808F0AFFE424808F0ACFE5DE0414844
:102B700008F0A8FE59E0404808F0A4FE55E03F48A0
:102B800008F0A0FE2D4BDB8A184605F0F6FE3C4807
:102B900008F098FE49E03B4808F094FE45E03A48CA
:102BA00008F090FE41E07B6A0233D3F80230194608
:102BB000364808F001FE7B6A0233D3F8023019462A
:102BC000334808F0F9FD1D4BDB8A0121184605F05A
:102BD00028FF304808F076FE27E07B6A02333B622C
:102BE0003B6A9B7819462C4808F0E6FD3B6A9B78C7
:102BF000002B03D1294808F065FE16E0284808F0AC
:102C000061FE12E0274B01221A700EE0264808F000
:102C100059FE0AE0012000F071FF084B93F8823062
:102C20000A211846FEF7D4FF00BF01E000BF00E014
:102C300000BF012318463037BD4680BD5401002037
:102C400058CC0008B004002080CC0008ACCC0008B0
:102C5000C8CC0008ECCC000814CD000828CD000832
:102C600044CD00085CCD0008A0CD0008D0CD000800
:102C7000F8CD000818CE000844CE000878CE000831
:102C80009CCE0008B8CE0008E4CE000814CF00089F
:102C90002CCF000840CF00087CCF0008DCCF000814
:102CA000F0CF0008B504002004D0000880B500AFC4
:102CB00000F0A4FB00BF80BD80B500AF0021022062
:102CC00008F018FC00BF80BD80B400AF00BFBD4657
:102CD0005DF8047B7047000080B582B000AF064B02
:102CE0003B60064B7B603B461946054806F060FD9D
:102CF00000BF0837BD4680BD2800032031320008E0
:102D0000F9310008F0B58DB006AF0023BB8006F0A6
:102D1000DBFA00F051F978617A690621002006F0AB
:102D200093F97B695A794B4B1A727B691A79494B33
:102D30005A727B69DA78474B9A727B699A78454B6D
:102D4000DA727B695A78434B1A737B691A78414B64
:102D50005A73414A1021182006F076F93F4A102193
:102D6000082006F071F91821012006F0F2F905F0AB
:102D7000BFFE0023FB74FB7C43F00103FB74FB7C70
:102D8000002B1DD0364BFB6007F10A02F87CBB1DFF
:102D9000019307F10803009313460722002105F071
:102DA000A9FC7C893D89F868FDF7EAF90346DAB2A7
:102DB000FB680093134600222946204606F09BF844
:102DC0007889F9883B1D00930223002206F093F8CE
:102DD00002220221002006F019FB224B01221A7068
:102DE000204B1B78184605F06DFB1E4B01225A70D4
:102DF0001C4B08221A711B4B10225A71194B0022CE
:102E0000DA70184B184A9A60164B01229A70154BCB
:102E10009C78144B5D78134B1B79124A52791149F7
:102E2000C9781048806800260496039002910192A8
:102E30000093002301222946204605F097FB094B09
:102E40009B78002B01D005F074FD00BF1C37BD46F8
:102E5000F0BD00BF1000002018D5000828D50008DC
:102E60002CD000085401002007B2010080B58CB0BE
:102E700008AF0346FB719223FB72FB79012B06D14D
:102E80003F4B1B88FB813F4B1B88BB8105E04FF408
:102E9000C863FB814FF47A63BB813B4B93F881306D
:102EA0001846FEF709FE384B93F88030194637482C
:102EB00008F082FCFB79022B19D1334B93F8803058
:102EC000012B04D0304B93F88030022B0FD105F04A
:102ED000DBF90346FB72FB7A002B03D12C4808F088
:102EE000F1FC04E0FB7A19462A4808F065FC264A02
:102EF000FB7982F88030244B1B7EBA89F989002047
:102F0000069000200590244804900393234B0293DD
:102F100008230193002300930023002005F0D8F933
:102F20000346FB721E490E2005F091FC0346FB721E
:102F3000FB7A002B11D1FB79012B0AD1194808F03B
:102F4000C1FC114B93F8813017491846FEF740FE3B
:102F500012E0164808F0B6FC0EE0FB79012B05D113
:102F6000FB7A1946124808F027FC05E0FB7A19465F
:102F7000104808F021FC00BF1037BD4680BD00BFDF
:102F8000D8010020DA0100205401002034D00008CC
:102F900050D0000874D000086D01002038D500081A
:102FA000100000209CD0000846E00100C4D00008BA
:102FB000F0D0000820D1000880B586B000AFFFF740
:102FC00035FC38613B69B3F1FF3F23D0FFF746FC86
:102FD000B860FFF737FC78603B69DAB2164B1A70BD
:102FE0003B691B0ADAB2144B5A707B68DAB2124B97
:102FF0009A70BB68DAB2104BDA70BB681B0ADAB29F
:103000000D4B1A71BB681B0CDAB20B4B5A710A4B91
:103010007B610BE0002006F081FDF860FB68002B6F
:1030200002D0FB687B6101E0044B7B617B69184641
:103030001837BD4680BD00BFA804002010D5000889
:1030400080B582B000AF012000F072FD104B93F804
:103050008030052B17D00023FB7105F015F90346CE
:10306000FB710B4B002283F88020FB79002B06D1EB
:10307000084808F0A1FB084808F09EFB03E0074859
:1030800008F09AFB00BF00BF0837BD4680BD00BFF7
:103090005401002054D100085CD1000878D1000808
:1030A00080B500AF0021012008F024FA00BF80BDE8
:1030B00080B500AF012000F03BFD00BF80BD0000E7
:1030C00090B589B002AF0346FB80294B1B78012BDA
:1030D00049D1274B00221A70264B1B780133002B55
:1030E00003F00103B8BF5B42DAB2224B1A70214BE6
:1030F0001B78214A9B00134493ED007AF7EE046A93
:10310000C7EE267AFDEEE77A17EE903AFB82194B6E
:103110001B78194A9B00134493ED007AF7EE046A7A
:10312000C7EE267AFDEEE77A17EE903ABB820023CF
:103130007B824FF4FA733B82104BD88A7C8ABA8A1E
:10314000F98A3B8A0093234606F0DDF90346FB73B8
:10315000FB7B002B03D10A4808F02EFB03E0094853
:1031600008F02AFB00BF00BF1C37BD4690BD00BF62
:10317000B5040020B4040020080000205401002001
:103180009CD10008CCD1000880B500AF084B93F863
:103190008030012B0AD0064B93F88030002B05D0ED
:1031A000034BDB8A1846FFF78BFF00BF00BF80BDD3
:1031B0005401002080B582B000AF78600021042067
:1031C00008F098F900BF0837BD4680BD80B582B0D1
:1031D00000AF7860012008F0F9F900BF0837BD465C
:1031E00080BD80B582B000AF7860012008F00EFA93
:1031F00000BF0837BD4680BD80B584B000AF7860A1
:103200007B68FB60FB685B680833184607F088FD45
:103210000346FB72FB7A002B03D0FB6801221A7075
:1032200003E0FB6800221A7000BF1037BD4680BD66
:1032300080B584B000AF0346FB71FB79002B02D050
:10324000012B06D00BE03F23FB60F86808F07EF905
:1032500005E03F23FB60F86808F098F900BF00BF65
:103260001037BD4680BD000080B582B000AF7860E9
:103270007B681B78032B1AD0032B6BDC002B02D04E
:10328000012B0AD066E0374B01221A70364808F04D
:1032900019FB364808F090FA5FE0324B00221A70B2
:1032A000334808F00FFB314808F086FA55E07B6898
:1032B0005B681B78612B23D17B685B6801331B78CB
:1032C000622B0BD1002000F019FC2A4808F0FAFA12
:1032D000264808F071FA234B01229A707B685B68DC
:1032E00001331B78612B0BD1002000F021FC224818
:1032F00008F0E8FA1D4808F05FFA1A4B00229A70AD
:103300007B685B681B78622B26D17B685B68013326
:103310001B78622B0BD1002000F0F0FB174808F05F
:10332000D1FA124808F048FA0E4B01229A707B68D5
:103330005B6801331B78612B0ED1002000F0F8FB95
:103340000F4808F0BFFA094808F036FA054B00228A
:103350009A7001E000BF00E000BF00BF0837BD4623
:1033600080BD00BFDC010020F4D1000828D2000895
:103370002CD2000860D2000888D20008B0D2000821
:10338000D8D2000880B582B000AF78607B681B7827
:10339000002B05D0012B00D003E000F019F800E06D
:1033A00000BF00BF0837BD4680BD000080B500AF3C
:1033B000054A0021082008F07BF8044B00221A700F
:1033C00000F006F800BF80BD0D340008DC010020CD
:1033D00080B500AF002000F0ABFB074B01225A7014
:1033E000054B00229A70044B0122DA70024B002236
:1033F0001A7100BF80BD00BFDC01002080B500AFA6
:103400000021082008F076F800BF80BD80B500AF2D
:10341000474B1B79002B03D1454B01221A7102E067
:10342000434B00221A71424B1B78002B7AD0414843
:1034300008F0C2F9404808F0BFF9404B1B78002B58
:1034400033D13F4B5B78302B09D13D4B1B78013B8F
:10345000DAB23B4B1A703A4B39225A7005E0384BBE
:103460005B78013BDAB2364B5A70354B1B78302B08
:1034700009D1334B5B78302B05D1314B39221A708F
:103480002F4B3A225A7008F025FA02462D4B83FB47
:1034900002135910D317C91A0B469B000B44D11ABB
:1034A000CBB20133DAB2254B1A70244B1B78013BA7
:1034B000DAB2224B1A701E4B9B78012B2CD1204B79
:1034C0005B79023BDAB21E4B5A711D4B5B792F2B95
:1034D00008D81B4B39225A71194B1B79013BDAB2C0
:1034E000174B1A71164B1B792F2B08D8144B392206
:1034F0001A71134BDB78013BDAB2114BDA70104BC7
:10350000DB782F2B08D80E4B3222DA700C4B352289
:103510001A710B4B36225A7109494FF6426006F078
:103520002FFC03E0084808F047F900BF80BD00BF4A
:10353000DC01002000D3000828D20008260000206B
:10354000200000206766666640D3000880B400AFA4
:10355000054BDB68044A43F40043D36000BFBD461B
:103560005DF8047B704700BF0004005880B483B04E
:1035700000AF7860064BD3F8D42005497B6813432D
:10358000C1F8D43000BF0C37BD465DF8047B7047EE
:103590000008005880B483B000AF7860054B1A6A09
:1035A00004497B6813430B6200BF0C37BD465DF8CE
:1035B000047B70470008005880B485B000AF786085
:1035C0004FF0B0431A6D4FF0B0417B6813430B6569
:1035D0004FF0B0431A6D7B681340FB60FB6800BF7F
:1035E0001437BD465DF8047B704780B485B000AFEA
:1035F00078604FF0B043D3F850214FF0B0417B6872
:103600001343C1F850314FF0B043D3F850217B68D9
:103610001340FB60FB6800BF1437BD465DF8047BB8
:10362000704780B483B000AF78607B681B6843F458
:1036300080327B681A6000BF0C37BD465DF8047BA2
:10364000704780B483B000AF78607B681B6843F03C
:1036500001027B681A6000BF0C37BD465DF8047B31
:10366000704780B483B000AF786039607B685A6877
:103670003B681B04DB431A407B685A6000BF0C3771
:10368000BD465DF8047B704780B483B000AF7860BE
:1036900039607B685A683B681B041A437B685A6030
:1036A00000BF0C37BD465DF8047B704780B483B023
:1036B00000AF786039607B685A683B68DB431A402A
:1036C0007B685A6000BF0C37BD465DF8047B7047CD
:1036D00080B483B000AF786039607B683A689A60E4
:1036E00000BF0C37BD465DF8047B704780B483B0E3
:1036F00000AF786039603B681A047B689A6000BF4D
:103700000C37BD465DF8047B704780B483B000AFD2
:10371000786039607B68DA683B6813403A689A429F
:1037200001D1012300E0002318460C37BD465DF8A7
:10373000047B704780B483B000AF786039607B68E9
:10374000DA693B6813403A689A4201D1012300E0EC
:10375000002318460C37BD465DF8047B7047000017
:1037600080B500AF02211948FFF7E4FF0346002BA4
:1037700009D0164B5B68DB4303F00203002B02D039
:1037800000F0DAF81FE001211048FFF7D3FF0346ED
:10379000002B08D00D4B5B6803F00103002B02D116
:1037A00000F08EF80FE008210848FFF7C3FF03463A
:1037B000002B09D0054B5B68DB4303F00803002BAB
:1037C00002D000F005F900BF00BF80BD000C00581A
:1037D00080B500AF02211A48FFF797FF0346002B80
:1037E00009D1174B5B68DB4303F40033002B02D095
:1037F00000F096F820E008211148FFF786FF034605
:10380000002B09D10E4B5B68DB4303F40023002B34
:1038100002D000F0BFF80FE020210948FFF775FF44
:103820000346002B09D1064B5B68DB4303F400130E
:10383000002B02D000F050F800BF00BF80BD00BFD9
:10384000000C005880B500AF4FF48010FFF7CDFE9C
:103850004FF40070FFF78AFE4FF40070FFF79AFEF6
:1038600040BF20BFFFF772FE00BF80BD80B500AF34
:103870004FF48010FFF7A0FE0648FFF7E2FE054870
:10388000FFF7CFFE2C2000F046FC2D2000F043FC7B
:1038900000BF80BD000C005880B500AF0121024878
:1038A000FFF704FF00BF80BD000C005880B500AFDB
:1038B00001210248FFF71AFF00BF80BD000C00582D
:1038C00080B500AF07F010FB01210248FFF700FFB1
:1038D00000BF80BD000C005880B500AF2021034818
:1038E000FFF7D2FE07F030FB00BF80BD000C005890
:1038F00080B500AF02210248FFF7D8FE00BF80BDAF
:10390000000C005880B500AF02210448FFF7EEFE1E
:1039100002210248FFF7A5FE00BF80BD000C005841
:1039200080B500AF02210348FFF7AEFE07F05CFB55
:1039300000BF80BD000C005880B500AF07F06AFBE7
:1039400002210248FFF7C4FE00BF80BD000C0058F2
:1039500080B582B000AF786008210C48FFF7D5FE33
:103960000346002B07D00A4A7B68136008210748EA
:10397000FFF777FE06E07B68984708210348FFF7CA
:10398000B5FE00BF0837BD4680BD00BF000C005823
:10399000B804002080B500AF08210648FFF774FE88
:1039A000054B1B68984708210248FFF79FFE00BFA0
:1039B00080BD00BF000C0058B804002080B500AFE7
:1039C00008210248FFF772FE00BF80BD000C0058BE
:1039D00080B500AF07F0C6FB08210248FFF778FE6C
:1039E00000BF80BD000C0058D458C4500433C41824
:1039F0008C42F9D37047036004308842FBD3704790
:103A00000C4885460C480D490D4A0023FFF7EFFF8F
:103A10000C480D490023FFF7F0FF0C480C49002328
:103A2000FFF7EBFF00F00EF907F08CFEFEF73AFA15
:103A3000FEE700000000032008000020B80000207E
:103A400084D700082002002004160020E001032093
:103A5000570A0320FEE780B485B000AF78604FF0CE
:103A6000B043DA6C4FF0B0417B681343CB644FF046
:103A7000B043DA6C7B681340FB60FB6800BF14370F
:103A8000BD465DF8047B704780B588B000AF034643
:103A9000FB7107F10C0300221A605A609A60DA6029
:103AA0001A610220FFF7D7FFFB79124A32F8133070
:103AB000FB6001233B6100237B610223BB61FB7937
:103AC0000D4A52F8233007F10C021146184600F057
:103AD000D9FEFB79084A52F82300FB79054A32F8EF
:103AE00013300022194601F03DF800BF2037BD46D3
:103AF00080BD00BF40D500082800002080B582B0FE
:103B000000AF0346FB71FB79074A52F82300FB79AB
:103B1000064A32F813300122194601F023F800BF9B
:103B20000837BD4680BD00BF2800002040D50008F2
:103B300080B582B000AF0346FB71FB79074A52F8AB
:103B40002300FB79064A32F813300022194601F0AF
:103B500009F800BF0837BD4680BD00BF280000201F
:103B600040D5000880B588B000AF03460A46FB7117
:103B70001346BB7107F10C0300221A605A609A6069
:103B8000DA601A61FB79002B03D10420FFF763FF91
:103B90000CE0FB79012B03D10820FFF75CFF05E067
:103BA000FB79022B02D10820FFF755FFBB79002BD0
:103BB00017D1FB79204A32F81330FB6000233B61B8
:103BC00001237B610223BB61FB791C4A52F823303D
:103BD00007F10C021146184600F054FE0120FDF7D3
:103BE00061F9BB79012B23D1FB79134A32F81330E9
:103BF000FB6001237B614FF404133B61FB790F4AA7
:103C000052F8233007F10C021146184600F03AFE34
:103C1000FB790B4AD35C5BB200220F21184600F0FF
:103C200060FAFB79064AD35C5BB2184600F073FA7F
:103C300000BF2037BD4680BD48D5000834000020B5
:103C400050D5000880B400AF264B00229A60254B67
:103C5000D3F88830234A43F47003C2F888304FF019
:103C6000B0431B684FF0B04243F0010313604FF0C4
:103C7000B0434FF4E0229A604FF0B0431A684FF01F
:103C8000B041194B13400B604FF0B043D3F8943060
:103C90004FF0B04223F00503C2F894304FF0B04328
:103CA000D3F898304FF0B04223F00103C2F89830B7
:103CB0004FF0B0430D4ADA604FF0B0430B4A1A613F
:103CC0004FF0B0431B684FF0B04223F480231360E1
:103CD0004FF0B04300229A6100BFBD465DF8047BFF
:103CE000704700BF00ED00E0FBFEF6FA0010042272
:103CF00080B400AF054B5B68044A43F00103536096
:103D000000BFBD465DF8047B704700BF002004E0A3
:103D100080B400AF054B5B68044A43F00203536074
:103D200000BFBD465DF8047B704700BF002004E083
:103D300080B582B000AF0023FB710C4B1B680B4AAF
:103D400043F480731360032000F0C0F9002000F0FA
:103D50000FF80346002B02D00123FB7101E0FEF7B0
:103D6000AEFAFB7918460837BD4680BD00400058C2
:103D700080B584B000AF78600023FB73174B1B78CD
:103D8000002B24D002F096F80246144B1B781946FB
:103D90004FF47A73B3FBF1F3B2FBF3F3184600F080
:103DA000D6F90346002B0FD17B680F2B09D80022D0
:103DB00079684FF0FF3000F094F9094A7B6813608E
:103DC00007E00123FB7304E00123FB7301E00123FF
:103DD000FB73FB7B18461037BD4680BD48000020B2
:103DE0004400002080B400AF064B1B781A46064BF7
:103DF0001B681344044A136000BFBD465DF8047B92
:103E0000704700BF48000020BC04002080B400AF11
:103E1000034B1B681846BD465DF8047B704700BF26
:103E2000BC04002080B400AF034B1B681846BD469D
:103E30005DF8047B704700BF4400002080B400AFF1
:103E4000034B1B781846BD465DF8047B704700BFE6
:103E50004800002080B500AFFFF74AFF00BF80BDDB
:103E600080B500AFFFF754FF00BF80BD80B485B0C0
:103E700000AF78607B6803F00703FB600C4BDB68E6
:103E8000BB60BA684FF6FF031340BB60FB681A02C1
:103E9000BB68134343F0BF6343F40033BB60044A81
:103EA000BB68D36000BF1437BD465DF8047B704724
:103EB00000ED00E080B400AF044BDB681B0A03F0A8
:103EC00007031846BD465DF8047B704700ED00E02F
:103ED00080B483B000AF0346FB7197F90730002B25
:103EE0000BDBFB7903F01F02074997F907305B09E9
:103EF000012000FA02F241F8232000BF0C37BD4632
:103F00005DF8047B704700BF00E100E080B483B03F
:103F100000AF0346FB7197F90730002B12DBFB79EA
:103F200003F01F020A4997F907305B09012000FAE4
:103F300002F2203341F82320BFF34F8F00BFBFF3BD
:103F40006F8F00BF00BF0C37BD465DF8047B704724
:103F500000E100E080B483B000AF0346FB7197F945
:103F60000730002B0CDBFB7903F01F02074997F9A0
:103F700007305B09012000FA02F2403341F82320A8
:103F800000BF0C37BD465DF8047B704700E100E0E0
:103F900080B483B000AF0346FB7197F90730002B64
:103FA0000CDBFB7903F01F02074997F907305B0927
:103FB000012000FA02F2603341F8232000BF0C37E1
:103FC000BD465DF8047B704700E100E080B483B03B
:103FD00000AF03463960FB7197F90730002B0ADB0D
:103FE0003B68DAB20C4997F907301201D2B20B44A0
:103FF00083F800230AE03B68DAB20849FB7903F052
:104000000F03043B1201D2B20B441A7600BF0C37E7
:10401000BD465DF8047B704700E100E000ED00E084
:1040200080B489B000AFF860B9607A60FB6803F0D3
:104030000703FB61FB69C3F10703042B28BF0423BB
:10404000BB61FB690433062B02D9FB69033B00E02B
:1040500000237B614FF0FF32BB6902FA03F3DA43BE
:10406000BB681A407B699A404FF0FF317B6901FAC7
:1040700003F3D9437B680B40134318462437BD46EE
:104080005DF8047B7047000080B582B000AF7860B7
:104090007B68013BB3F1807F01D301230FE00A4A23
:1040A0007B68013B53600F214FF0FF30FFF78EFF1D
:1040B000054B00229A60044B07221A600023184621
:1040C0000837BD4680BD00BF10E000E080B582B07B
:1040D00000AF78607868FFF7C9FE00BF0837BD46BB
:1040E00080BD80B586B000AF0346B9607A60FB73CF
:1040F000FFF7E0FE78617A68B9687869FFF790FFAA
:10410000024697F90F3011461846FFF75FFF00BFD0
:104110001837BD4680BD80B582B000AF0346FB7145
:1041200097F907301846FFF7D3FE00BF0837BD46A2
:1041300080BD80B582B000AF0346FB7197F90730B0
:104140001846FFF7E3FE00BF0837BD4680BD80B5C7
:1041500082B000AF78607868FFF796FF0346184694
:104160000837BD4680BD80B582B000AF0346FB7105
:1041700097F907301846FFF7EDFE00BF0837BD4638
:1041800080BD80B582B000AF0346FB7197F9073060
:104190001846FFF7FDFE00BF0837BD4680BD000092
:1041A00080B584B000AF78607B68002B01D101231B
:1041B0008EE07B681B681A46474B9A420FD87B6893
:1041C0001B681A46454B1344454AA2FB03231B09AF
:1041D0009A007B685A647B68424A1A640EE07B68E6
:1041E0001B681A46404B13443D4AA2FB03231B099C
:1041F0009A007B685A647B683C4A1A647B68022296
:1042000083F825207B681B681B68FB60FB6823F430
:10421000FF4323F07003FB607B689A687B68DB6870
:104220001A437B681B691A437B685B691A437B6886
:104230009B691A437B68DB691A437B681B6A1343DB
:10424000FA681343FB607B681B68FA681A60786839
:1042500000F074FA7B689B68B3F5804F02D17B68ED
:1042600000225A607B685A687B689B6C02F03F02B0
:104270001A607B68DB6C7A68126D5A607B685B68D9
:10428000002B10D07B685B68042B0CD8786800F09A
:1042900093FA7B685B6D00221A607B689B6D7A687D
:1042A000D26D5A6008E07B6800225A657B68002264
:1042B0009A657B680022DA657B680022DA637B6896
:1042C000012283F825207B68002283F82420002324
:1042D00018461037BD4680BD07040240F8FFFDBFF9
:1042E000CDCCCCCC00000240F8FBFDBF0004024066
:1042F00080B586B000AFF860B9607A603B6000239B
:10430000FB75FB6893F82430012B01D1022366E092
:10431000FB68012283F82420FB6893F82530DBB288
:10432000012B55D1FB68022283F82520FB6800226F
:10433000DA63FB681B681A68FB681B6822F00102DD
:104340001A603B687A68B968F86800F0B9F9FB68E8
:104350001B6B002B08D0FB681B681A68FB681B6886
:1043600042F00E021A600FE0FB681B681A68FB68D7
:104370001B6822F004021A60FB681B681A68FB685D
:104380001B6842F00A021A60FB689B6C1B6803F40E
:104390008033002B07D0FB689B6C1A68FB689B6C12
:1043A00042F480721A60FB685B6D002B07D0FB68DB
:1043B0005B6D1A68FB685B6D42F480721A60FB6883
:1043C0001B681A68FB681B6842F001021A6005E06E
:1043D000FB68002283F824200223FB75FB7D18462E
:1043E0001837BD4680BD80B483B000AF78607B686D
:1043F000002B01D101234FE07B6893F82530DBB21D
:10440000022B08D07B680422DA637B68002283F8E1
:104410002420012340E07B681B681A687B681B68C6
:1044200022F00E021A607B689B6C1A687B689B6C9A
:1044300022F480721A607B681B681A687B681B68AC
:1044400022F001021A607B685B6C03F01C027B683F
:104450001B6C012101FA02F25A607B68DB6C7A68FE
:10446000126D5A607B685B6D002B0CD07B685B6DB6
:104470001A687B685B6D22F480721A607B689B6DA2
:104480007A68D26D5A607B68012283F825207B68A8
:10449000002283F82420002318460C37BD465DF81F
:1044A000047B704780B584B000AF78600023FB7355
:1044B0007B6893F82530DBB2022B05D07B680422A1
:1044C000DA630123FB7347E07B681B681A687B682B
:1044D0001B6822F00E021A607B681B681A687B68F2
:1044E0001B6822F001021A607B689B6C1A687B686B
:1044F0009B6C22F480721A607B685B6C03F01C0278
:104500007B681B6C012101FA02F25A607B68DB6C4C
:104510007A68126D5A607B685B6D002B0CD07B68EB
:104520005B6D1A687B685B6D22F480721A607B6831
:104530009B6D7A68D26D5A607B68012283F82520D2
:104540007B68002283F824207B689B6B002B03D0C0
:104550007B689B6B78689847FB7B18461037BD4695
:1045600080BD80B584B000AF78607B681B6C1B6831
:10457000FB607B681B681B68BB607B685B6C03F03F
:104580001C0304229A40FB681340002B26D0BB6812
:1045900003F00403002B21D07B681B681B6803F029
:1045A0002003002B07D17B681B681A687B681B6897
:1045B00022F004021A607B685B6C03F01C027B68CB
:1045C0001B6C042101FA02F25A607B681B6B002B02
:1045D00071D07B681B6B786898476CE07B685B6C7C
:1045E00003F01C0302229A40FB681340002B2ED0DC
:1045F000BB6803F00203002B29D07B681B681B6893
:1046000003F02003002B0BD17B681B681A687B68C2
:104610001B6822F00A021A607B68012283F82520B9
:104620007B685B6C03F01C027B681B6C022101FA47
:1046300002F25A607B68002283F824207B68DB6AE0
:10464000002B38D07B68DB6A7868984733E07B685A
:104650005B6C03F01C0308229A40FB681340002B9C
:104660002AD0BB6803F00803002B25D07B681B68A9
:104670001A687B681B6822F00E021A607B685B6C0C
:1046800003F01C027B681B6C012101FA02F25A60E4
:104690007B680122DA637B68012283F825207B682E
:1046A000002283F824207B685B6B002B04D07B689E
:1046B0005B6B7868984700BF00BF1037BD4680BD70
:1046C00080B485B000AFF860B9607A603B60FB6889
:1046D000DB6CFA68126D5A60FB685B6D002B04D0CE
:1046E000FB689B6DFA68D26D5A60FB685B6C03F0E7
:1046F0001C02FB681B6C012101FA02F25A60FB6884
:104700001B683A685A60FB689B68102B08D1FB68ED
:104710001B687A689A60FB681B68BA68DA6007E011
:10472000FB681B68BA689A60FB681B687A68DA6085
:1047300000BF1437BD465DF8047B704780B485B078
:1047400000AF78607B681B681A46174B9A420AD8FC
:104750007B685B6C9B089B0003F1804303F502338D
:104760007A68936407E07B685B6C9B089A000F4B48
:1047700013447A6893647B681B68DBB2083B0C4A7D
:10478000A2FB03231B09FB607B680A4ADA64FB680F
:1047900003F01F0301229A407B681A6500BF14379B
:1047A000BD465DF8047B7047070402401C080240C8
:1047B000CDCCCCCC8008024080B485B000AF78600E
:1047C0007B685B6803F03F03FB60FA680B4B1344A4
:1047D0009B001A467B685A657B68094A9A65FB68A4
:1047E000013B03F0030301229A407B68DA6500BFB6
:1047F0001437BD465DF8047B704700BF3F82001050
:104800004009024080B483B000AF786039607B68B3
:1048100093F82530DBB2012B2BD17B6893F8243041
:10482000012B01D1022325E07B68012283F824209B
:104830007B689B6C1A68124B13403A6811683A689F
:10484000D268013AD20411433A68526811433A6877
:10485000127A120411433A68527A520211437A686A
:10486000926C0B4313607B68002283F824200023A2
:1048700000E0012318460C37BD465DF8047B704705
:10488000FFFD00E080B487B000AF7860396000239E
:104890007B614CE13B681A6801217B6901FA03F3F3
:1048A0001340FB60FB68002B00F03E813B685B68B7
:1048B00003F00303012B05D03B685B6803F003039F
:1048C000022B30D17B689B683B617B695B000322D4
:1048D00002FA03F3DB433A6913403B613B68DA6851
:1048E0007B695B0002FA03F33A6913433B617B681F
:1048F0003A699A607B685B683B6101227B6902FAD6
:1049000003F3DB433A6913403B613B685B681B0977
:1049100003F001027B6902FA03F33A6913433B6136
:104920007B683A695A603B685B6803F00303032BBA
:1049300017D07B68DB683B617B695B00032202FA6E
:1049400003F3DB433A6913403B613B689A687B6938
:104950005B0002FA03F33A6913433B617B683A69EF
:10496000DA603B685B6803F00303022B23D17B69A9
:10497000DA087B68083253F822303B617B6903F028
:1049800007039B000F2202FA03F3DB433A6913404B
:104990003B613B681A697B6903F007039B0002FADD
:1049A00003F33A6913433B617B69DA087B68083299
:1049B000396943F822107B681B683B617B695B00A7
:1049C000032202FA03F3DB433A6913403B613B687D
:1049D0005B6803F003027B695B0002FA03F33A6948
:1049E00013433B617B683A691A603B685B6803F478
:1049F0004033002B00F09880544A7B699B080233B7
:104A000052F823303B617B6903F003039B000F22C4
:104A100002FA03F3DB433A6913403B617B68B3F16D
:104A2000904F19D07B684A4A934213D07B68494A19
:104A300093420DD07B68484A934207D07B68474A2F
:104A4000934201D1042308E0072306E0032304E096
:104A5000022302E0012300E000237A6902F003024E
:104A6000920093403A6913433B6138497B699B0844
:104A700002333A6941F82320394B1B683B61FB68DC
:104A8000DB433A6913403B613B685B6803F4801386
:104A9000002B03D03A69FB6813433B61304A3B6902
:104AA00013602F4B5B683B61FB68DB433A69134043
:104AB0003B613B685B6803F40013002B03D03A6949
:104AC000FB6813433B61264A3B695360244BD3F890
:104AD00080303B61FB68DB433A6913403B613B68D4
:104AE0005B6803F48033002B03D03A69FB681343FF
:104AF0003B611B4A3B69C2F88030194BD3F88430C4
:104B00003B61FB68DB433A6913403B613B685B6890
:104B100003F40033002B03D03A69FB6813433B6175
:104B20000F4A3B69C2F884307B6901337B613B6883
:104B30001A687B6922FA03F3002B7FF4ABAE00BF47
:104B400000BF1C37BD465DF8047B70470000014084
:104B50000004004800080048000C0048001000480D
:104B60000008005880B483B000AF78600B467B80AB
:104B700013467B707B78002B03D07A887B689A6120
:104B800002E07A887B689A6200BF0C37BD465DF808
:104B9000047B704780B582B000AF0346FB80084BB2
:104BA000DA68FB881340002B06D0054AFB88D360E7
:104BB000FB881846FCF7D9F900BF0837BD4680BD11
:104BC0000008005880B582B000AF0A4BDB687B60FC
:104BD000084B1A687B68DB43064913400B60054AA3
:104BE0007B685360786800F007F800BF0837BD465F
:104BF00080BD00BF0015005880B483B000AF78605E
:104C000000BF0C37BD465DF8047B704780B584B0AB
:104C100000AF78600023FB737B68002B1ED0134B22
:104C2000BB607B6893F83830DBB2002B02D1786828
:104C3000FDF756FBB86800F05BF8BB681B6843F0F3
:104C40000112BB681A60786800F02CF87B680022BB
:104C50005A637B68012283F8382001E00123FB734B
:104C6000FB7B18461037BD4680BD00BF000C0058C6
:104C700080B485B000AFF860B9601346FB7100BF27
:104C80001437BD465DF8047B704780B485B000AF33
:104C9000F860B9601346FB7100BF1437BD465DF87C
:104CA000047B704780B485B000AF78600023FB6060
:104CB0000FE07A68FB689B0013440B4A5A607A68DD
:104CC000FB6806339B001344084A5A60FB680133B3
:104CD000FB60FB68052BECD900BF00BF1437BD4655
:104CE0005DF8047B704700BF714C00088B4C0008D6
:104CF00080B483B000AF78607B6800221A607B6864
:104D00004FF03F125A607B683F229A6000BF0C3719
:104D1000BD465DF8047B704780B400AF054B1B684F
:104D2000044A43F48073136000BFBD465DF8047B02
:104D3000704700BF0004005880B400AF044B1B68EC
:104D400003F4C0631846BD465DF8047B704700BF9E
:104D50000004005880B400AF4FF0B0431B6803F468
:104D60008013B3F5801F01D1012300E00023184612
:104D7000BD465DF8047B704780B400AF4FF0B04390
:104D80001B684FF0B04243F48033136000BFBD4650
:104D90005DF8047B704780B400AF4FF0B0431B68F0
:104DA0004FF0B04223F48033136000BFBD465DF87E
:104DB000047B704780B400AF4FF0B0431B6803F42E
:104DC0000033B3F5003F01D1012300E00023184672
:104DD000BD465DF8047B704780B400AF4FF0B04330
:104DE0001B684FF0B04243F48073136000BFBD46B0
:104DF0005DF8047B704780B400AF4FF0B0431B6890
:104E00004FF0B04223F48073136000BFBD465DF8DD
:104E1000047B704780B400AF4FF0B0431B6803F4CD
:104E20008063B3F5806F01D1012300E000231846B1
:104E3000BD465DF8047B704780B483B000AF7860F6
:104E40004FF0B0435B6823F0FE427B681B064FF0D7
:104E5000B04113434B6000BF0C37BD465DF8047B87
:104E6000704780B400AF4FF0B043D3F898304FF0A4
:104E7000B04243F00103C2F8983000BFBD465DF870
:104E8000047B704780B400AF4FF0B043D3F8983044
:104E90004FF0B04223F00103C2F8983000BFBD4686
:104EA0005DF8047B704780B400AF4FF0B043D3F897
:104EB000983003F00203022B01D1012300E000230C
:104EC0001846BD465DF8047B704780B400AF4FF0D4
:104ED000B043D3F890304FF0B04243F00103C2F832
:104EE000903000BFBD465DF8047B704780B400AFD2
:104EF0004FF0B043D3F890304FF0B04223F00103AD
:104F0000C2F8903000BFBD465DF8047B704780B4A6
:104F100000AF4FF0B043D3F890304FF0B04243F0C1
:104F20000403C2F8903000BFBD465DF8047B7047B3
:104F300080B400AF4FF0B043D3F890304FF0B042A0
:104F400023F00403C2F8903000BFBD465DF8047B37
:104F5000704780B400AF4FF0B043D3F8903003F007
:104F60000203022B01D1012300E000231846BD46B5
:104F70005DF8047B704780B400AF4FF0B043D3F8C6
:104F800094304FF0B04243F00103C2F8943000BFB8
:104F9000BD465DF8047B704780B400AF4FF0B0436E
:104FA000D3F894304FF0B04223F00103C2F89430AC
:104FB00000BFBD465DF8047B704780B400AF4FF082
:104FC000B043D3F8943003F00203022B01D1012344
:104FD00000E000231846BD465DF8047B704780B4AE
:104FE00000AF4FF0B043D3F894304FF0B04243F0ED
:104FF0000403C2F8943000BFBD465DF8047B7047DF
:1050000080B400AF4FF0B043D3F894304FF0B042CB
:1050100023F00403C2F8943000BFBD465DF8047B62
:10502000704780B400AF4FF0B043D3F8943003F032
:105030000803082B01D1012300E000231846BD46D8
:105040005DF8047B704780B483B000AF78604FF0A8
:10505000B043D3F8943023F470627B681B024FF0A6
:10506000B0411343C1F8943000BF0C37BD465DF822
:10507000047B704780B400AF4FF0B0431B684FF023
:10508000B04243F00103136000BFBD465DF8047BEE
:10509000704780B400AF4FF0B0431B684FF0B04290
:1050A00023F00103136000BFBD465DF8047B704729
:1050B00080B400AF4FF0B0431B6803F00203022B33
:1050C00001D1012300E000231846BD465DF8047BB2
:1050D000704780B483B000AF78604FF0B0431B6876
:1050E00023F0F0024FF0B0417B6813430B6000BF28
:1050F0000C37BD465DF8047B704780B483B000AFC9
:105100004FF0B0431B6803F0F0037B607B68B02B6B
:1051100001D9B0237B607B6818460C37BD465DF82B
:10512000047B704780B483B000AF78604FF0B04329
:105130005B6823F47F427B681B024FF0B04113434E
:105140004B6000BF0C37BD465DF8047B704780B4F0
:1051500083B000AF78604FF0B0439B6823F0030248
:105160004FF0B0417B6813438B6000BF0C37BD46E6
:105170005DF8047B704780B400AF4FF0B0439B688C
:1051800003F00C031846BD465DF8047B704780B4FD
:1051900083B000AF78604FF0B0439B6823F0F0021B
:1051A0004FF0B0417B6813438B6000BF0C37BD46A6
:1051B0005DF8047B704780B483B000AF78604FF037
:1051C000B043D3F8083123F0F0024FF0B0417B68D0
:1051D0001343C1F8083100BF0C37BD465DF8047BAE
:1051E000704780B483B000AF78604FF0B043D3F81D
:1051F000083123F00F027B681B094FF0B0411343C5
:10520000C1F8083100BF0C37BD465DF8047B70471C
:1052100080B483B000AF78604FF0B0439B6823F454
:10522000E0624FF0B0417B6813438B6000BF0C37E6
:10523000BD465DF8047B704780B483B000AF7860F2
:105240004FF0B0439B6823F460524FF0B0417B684D
:1052500013438B6000BF0C37BD465DF8047B70477D
:1052600080B400AF4FF0B0439B6803F0F0031846E2
:10527000BD465DF8047B704780B400AF4FF0B0438B
:10528000D3F808311B0103F0F0031846BD465DF862
:10529000047B704780B400AF4FF0B0439B6803F4C9
:1052A000E0631846BD465DF8047B704780B400AFEC
:1052B0004FF0B0439B6803F460531846BD465DF859
:1052C000047B704780B400AF4FF0B0431B684FF0D1
:1052D000B04243F08073136000BFBD465DF8047BAD
:1052E000704780B400AF4FF0B0431B684FF0B0423E
:1052F00023F08073136000BFBD465DF8047B7047E8
:1053000080B400AF4FF0B0431B6803F00073B3F1FB
:10531000007F01D1012300E000231846BD465DF85F
:10532000047B704780B400AF4FF0B043DB681B0ACA
:1053300003F07F031846BD465DF8047B704780B4D8
:1053400000AF4FF0B043DB6803F060431846BD4642
:105350005DF8047B704780B400AF4FF0B043DB686A
:1053600003F070031846BD465DF8047B704780B4B7
:1053700000AF4FF0B043DB6803F003031846BD46AF
:105380005DF8047B704780B400AF4FF0B0439B687A
:1053900003F48033B3F5803F01D1012300E0002303
:1053A0001846BD465DF8047B704780B400AF4FF0EF
:1053B000B043D3F8083103F40033B3F5003F01D113
:1053C000012300E000231846BD465DF8047B7047CA
:1053D00080B400AF4FF0B043D3F8083103F480330A
:1053E000B3F5803F01D1012300E000231846BD46FC
:1053F0005DF8047B704780B400AF4FF0B0439B680A
:1054000003F40033B3F5003F01D1012300E0002392
:105410001846BD465DF8047B704780B400AF4FF07E
:10542000B0439B6803F48023B3F5802F01D101239F
:1054300000E000231846BD465DF8047B704700007D
:1054400090B58DB000AF78607B68002B01D101234F
:105450007FE37B681B6803F02003002B00F0928041
:10546000FFF789FEF862FFF782FFB862FB6A002B44
:1054700005D0FB6A0C2B4CD1BB6A012B49D1FFF73D
:1054800017FE0346002B05D07B68DB69002B01D19A
:1054900001235EE37B685C6AFFF72FFE03469C42B4
:1054A00014D97B685B6A184600F044FD0346002B64
:1054B00001D001234DE37B685B6A1846FFF709FEC4
:1054C0007B681B6A1846FFF72DFE13E07B685B6A5A
:1054D0001846FFF7FEFD7B681B6A1846FFF722FEA1
:1054E0007B685B6A184600F025FD0346002B01D05F
:1054F00001232EE300F0DEFC0346A54A1360A54B12
:105500001B681846FEF734FC0346002B39D00123F4
:105510001FE37B68DB69002B1ED0FFF7ABFDFEF7B6
:1055200075FC786208E0FEF771FC02467B6AD31ACC
:10553000022B01D903230CE3FFF7BAFD0346002B2E
:10554000F1D07B685B6A1846FFF7C3FD7B681B6A76
:105550001846FFF7E7FD15E0FFF79BFDFEF756FC49
:10556000786208E0FEF752FC02467B6AD31A022BEF
:1055700001D90323EDE2FFF79BFD0346002BF1D198
:1055800000E000BF7B681B6803F00103002B4ED0D6
:10559000FFF7F1FD3862FFF7EAFEF8613B6A082B7E
:1055A00005D03B6A0C2B0DD1FB69032B0AD1FFF709
:1055B00001FC0346002B39D07B685B68002B35D19A
:1055C0000123C6E27B685B68B3F5803F02D1FFF739
:1055D000D3FB01E0FFF7DFFB7B685B68002B12D099
:1055E000FEF714FC786208E0FEF710FC02467B6AC6
:1055F000D31A642B01D90323ABE2FFF7DBFB03468D
:10560000002BF1D013E0FEF701FC786208E0FEF712
:10561000FDFB02467B6AD31A642B01D9032398E26F
:10562000FFF7C8FB0346002BF1D100E000BF7B6809
:105630001B6803F00203002B51D0FFF79CFDB861FB
:10564000FFF795FE7861BB69042B05D0BB690C2B75
:1056500013D17B69022B10D1FFF7DCFB0346002B33
:1056600005D07B68DB68002B01D1012371E27B68E8
:105670001B691846FFF7E0FB31E07B68DB68002B15
:1056800019D0FFF7A9FBFEF7C1FB786208E0FEF72F
:10569000BDFB02467B6AD31A022B01D9032358E2D1
:1056A000FFF7B8FB0346002BF1D07B681B69184657
:1056B000FFF7C2FB13E0FFF79EFBFEF7A7FB786244
:1056C00008E0FEF7A3FB02467B6AD31A022B01D93E
:1056D00003233EE2FFF79EFB0346002BF1D17B68DC
:1056E0001B6803F00803002B06D17B681B6803F0DE
:1056F0001003002B00F0A4807B685B69002B77D03F
:105700007B681B6803F01003002B4BD0FFF755FCA0
:105710000346002B13D1FFF72EFCFEF777FB7862D0
:1057200008E0FEF773FB02467B6AD31A022B01D90D
:1057300003230EE2FFF741FC0346002BF1D0FFF7F5
:105740004EFCFEF763FB786208E0FEF75FFB024663
:105750007B6AD31A032B01D90323FAE1FFF761FC1B
:105760000346002BF1D07B689B691846FFF76BFC62
:10577000FFF712FCFEF74AFB78620DE0FEF746FBEE
:1057800002467B6AD31A022B06D90323E1E100BF4C
:105790004000002044000020FFF70FFC0346002BD0
:1057A000ECD14DE0FFF7E7FBFEF730FB786208E055
:1057B000FEF72CFB02467B6AD31A022B01D9032386
:1057C000C7E1FFF7FAFB0346002BF1D0FFF718FC07
:1057D00008E0FEF71BFB02467B6AD31A032B01D9B4
:1057E0000323B6E1FFF71DFC0346002BF1D127E0B0
:1057F000FFF706FCFEF70AFB786208E0FEF706FBFF
:1058000002467B6AD31A032B01D90323A1E1FFF7D8
:1058100008FC0346002BF1D1FFF7BEFBFEF7F6FABA
:10582000786208E0FEF7F2FA02467B6AD31A022B8E
:1058300001D903238DE1FFF7C0FB0346002BF1D113
:105840007B681B6803F00403002B5BD0A74B1B682D
:1058500003F48073002B14D1FFF75EFAFEF7D6FA3B
:10586000786208E0FEF7D2FA02467B6AD31A022B6E
:1058700001D903236DE19D4B1B6803F48073002B5A
:10588000F0D07B689B68012B02D1FFF71EFB0CE078
:105890007B689B68052B04D1FFF739FBFFF715FBED
:1058A00003E0FFF723FBFFF743FB7B689B68002BBC
:1058B00014D0FEF7ABFA78620AE0FEF7A7FA0246C8
:1058C0007B6AD31A41F28832934201D9032340E123
:1058D000FFF73FFB0346002BEFD013E0FEF796FAED
:1058E00078620AE0FEF792FA02467B6AD31A41F226
:1058F0008832934201D903232BE1FFF72AFB0346A9
:10590000002BEFD17B681B6803F04003002B2CD0E9
:105910007B689B6A002B14D0FFF7A3FAFEF776FA98
:10592000786208E0FEF772FA02467B6AD31A022B0D
:1059300001D903230DE1FFF7B6FA0346002BF1D09E
:1059400013E0FFF79FFAFEF761FA786208E0FEF7CE
:105950005DFA02467B6AD31A022B01D90323F8E0D1
:10596000FFF7A1FA0346002BF1D17B68DB6A002B1D
:1059700000F0EE80FFF7FFFB38614FF0B043DB68CB
:10598000FB607B68DB6A022B40F0B480FB6803F0AD
:1059900003027B681B6B9A4223D1FB6803F0700201
:1059A0007B685B6B9A421CD1FB681B0A03F07F0289
:1059B0007B689B6B9A4214D1FB6803F478127B6876
:1059C000DB6B9A420DD1FB6803F060627B681B6C55
:1059D0009A4206D1FB6803F060427B685B6C9A4296
:1059E0005DD03B690C2B58D04FF0B0431B6803F0DF
:1059F0008063002B01D00123ABE0FFF772FCFEF7C0
:105A000005FA786208E0FEF701FA02467B6AD31ACB
:105A1000022B01D903239CE04FF0B0431B6803F035
:105A20000073002BEFD14FF0B043DA68304B1340D6
:105A30007A68116B7A68526B11437A68926B120222
:105A400011437A68D26B11437A68126C11437A68F9
:105A5000526C0A434FF0B0411343CB60FFF732FC66
:105A60004FF0B043DB684FF0B04243F08053D36057
:105A7000FEF7CCF9786208E0FEF7C8F902467B6AC7
:105A8000D31A022B01D9032363E04FF0B0431B6804
:105A900003F00073002BEFD05AE0012359E04FF0E0
:105AA000B0431B6803F00073002B51D1FFF70AFCD1
:105AB0004FF0B043DB684FF0B04243F08053D36007
:105AC000FEF7A4F9786208E0FEF7A0F902467B6AC7
:105AD000D31A022B01D903233BE04FF0B0431B68DC
